:020000040000FA
:100000000C945D000C94E1030C94BA030C948500ED
:100010000C9485000C9485000C9485000C9485004C
:100020000C9485000C9485000C9485000C9485003C
:100030000C9485000C9485000C9485000C9485002C
:100040000C9470030C9485000C942E040C940804FA
:100050000C9485000C9485000C9485000C9485000C
:100060000C9460040C94850000000000240027001C
:100070002A0000000000250028002B0004040404CE
:100080000404040402020202020203030303030342
:10009000010204081020408001020408102001021F
:1000A00004081020000000080002010000030407FB
:1000B00000000000000000007F0511241FBECFEFEC
:1000C000D8E0DEBFCDBF11E0A0E0B1E0ECE4FFE09E
:1000D00002C005900D92AE33B107D9F722E0AEE32E
:1000E000B1E001C01D92AE3AB207E1F710E0CDE5F4
:1000F000D0E004C02197FE010E949E07CC35D107B5
:10010000C9F70E94B8050C94A4070C94000090E075
:10011000FC01EC55FF4F2491FC01E057FF4F349157
:10012000FC01E458FF4FE491EE23C9F0222339F09B
:10013000233001F1A8F4213019F1223029F1F0E047
:10014000EE0FFF1FEE58FF4FA591B4918FB7F894B3
:10015000EC91611126C030953E233C938FBF0895EA
:100160002730A9F02830C9F0243049F78091800069
:100170008F7D03C0809180008F7780938000DFCFD8
:1001800084B58F7784BDDBCF84B58F7DFBCF809125
:10019000B0008F778093B000D2CF8091B0008F7D78
:1001A000F9CF3E2BDACF3FB7F894809101029091BE
:1001B0000202A0910302B091040226B5A89B05C0DB
:1001C0002F3F19F00196A11DB11D3FBFBA2FA92FD6
:1001D000982F8827BC01CD01620F711D811D911DD3
:1001E00042E0660F771F881F991F4A95D1F708953F
:1001F00081E090E09093FB018093FA0108950895C7
:10020000CF93DF93AC01E091A801F091A901309761
:10021000F1F09091A7018091A6019817C0F090E0AD
:10022000292F30E02617370754F4D901A25CBE4FBE
:10023000240F351FE90128812C939F5FF1CF109285
:10024000A7016093A601CB01DF91CF910994DF91C3
:10025000CF9108950895AF92BF92CF92DF92EF921F
:10026000FF920F931F93CF93DF936C017B018B0160
:10027000040F151FEB015E01AE18BF08C017D107B0
:1002800059F06991D601ED91FC910190F081E02D3A
:10029000C6010995892B79F7C501DF91CF911F918F
:1002A0000F91FF90EF90DF90CF90BF90AF900895A7
:1002B000FC01538D448D252F30E0842F90E0821B6C
:1002C000930B541710F0CF96089501970895FC01F1
:1002D000918D828D981761F0A28DAE0FBF2FB11D49
:1002E0005D968C91928D9F5F9F73928F90E00895A1
:1002F0008FEF9FEF0895FC01918D828D981731F05B
:10030000828DE80FF11D858D90E008958FEF9FEFAE
:100310000895FC01918D228D892F90E0805C9F4F84
:10032000821B91098F739927089585E092E00E94BE
:10033000890121E0892B09F420E0822F089580E0D3
:1003400090E0892B29F00E94950181110C94000006
:100350000895FC01A48DA80FB92FB11DA35ABF4F5A
:100360002C91848D90E001968F739927848FA689B4
:10037000B7892C93A089B1898C91837080648C9308
:10038000938D848D981306C00288F389E02D8081B7
:100390008F7D80830895EF92FF920F931F93CF93E9
:1003A000DF93EC0181E0888F9B8D8C8D98131AC0B0
:1003B000E889F989808185FF15C09FB7F894EE8997
:1003C000FF896083E889F9898081837080648083F4
:1003D0009FBF81E090E0DF91CF911F910F91FF903F
:1003E000EF900895F62E0B8D10E00F5F1F4F0F73E7
:1003F0001127E02E8C8D8E110CC00FB607FCFACFA2
:10040000E889F989808185FFF5CFCE010E94A90195
:10041000F1CFEB8DEC0FFD2FF11DE35AFF4FF08272
:100420009FB7F8940B8FEA89FB8980818062CFCFD8
:10043000CF93DF93EC01888D8823B9F0AA89BB891B
:10044000E889F9898C9185FD03C0808186FD0DC006
:100450000FB607FCF7CF8C9185FFF2CF808185FF27
:10046000EDCFCE010E94A901E9CFDF91CF91089590
:1004700020917F01260F3327331F21323105ECF401
:100480002091D001FC0190E080E0243069F082E00E
:100490000895A0917F012191AC01415A5E4FA40FB4
:1004A000B52FB11D2C930196861798F380917F018B
:1004B000680F60937F0180E0089581E008951092B5
:1004C000D00181E08093CF011092AA0161E082E126
:1004D0000E94870061E083E10E948700E9EBF0E081
:1004E00080818E7F808380818D7F808388E480936C
:1004F000B80085E48093BC000895CF93DF9391E02A
:1005000090935E018823B9F0C091B800D091BA00F1
:100510008091BC008A7B8093BC0060E082E10E94F5
:10052000870060E083E10E9487000E945F02D09311
:10053000BA00C093B800DF91CF9108950895E0917B
:10054000A7018091A601E81730F4F0E0E25CFE4FCD
:10055000808190E008958FEF9FEF08959091A7011B
:100560008091A6012FEF3FEF981748F4E92FF0E0B4
:10057000E25CFE4F208130E09F5F9093A701C901AC
:1005800008958091A6019091A701891B990B089568
:10059000CF92DF92EF92FF920F931F93CF93DF934F
:1005A0007C01CB018A012091F901222389F0EB0122
:1005B0006B01C40ED51ECC15DD0569F06991D7011C
:1005C000ED91FC910190F081E02DC7010995F3CFE9
:1005D000642F0E943802C801DF91CF911F910F91C3
:1005E000FF90EF90DF90CF900895CF93DF931F920D
:1005F000CDB7DEB769832091F9012223F9F020916C
:10060000F601203258F021E030E0FC0133832283F0
:1006100090E080E00F90DF91CF9108958091F701F5
:10062000E82FF0E0EA52FE4F998190838F5F80932C
:10063000F7018093F60181E090E0ECCF61E0CE011C
:1006400001960E943802F7CF90E080E008959091E3
:10065000A6018091A701981751F082EA92E00E94CA
:10066000AE02682F85E092E00E94CB01F0CF0895A2
:1006700085ED8093BC008091D2019091D301A0912F
:10068000D401B091D5010796A11DB11D23E0B69507
:10069000A795979587952A95D1F72091BC0024FDC1
:1006A00003C01092D00108954091D2015091D3011E
:1006B0006091D4017091D501452B462B472B69F3EE
:1006C0000097A105B10541F02AE22A95F1F700C093
:1006D0000197A109B109E1CF8091D1010C947D026C
:1006E0001F920F920FB60F9211242F933F938F9367
:1006F0009F93AF93BF938091FD019091FE01A091D4
:10070000FF01B09100023091FC0123E0230F2D374F
:1007100058F50196A11DB11D2093FC018093FD01A8
:100720009093FE01A093FF01B0930002809101021B
:1007300090910202A0910302B09104020196A11DC2
:10074000B11D8093010290930202A0930302B09323
:100750000402BF91AF919F918F913F912F910F9084
:100760000FBE0F901F90189526E8230F0296A11D2B
:10077000B11DD2CF1F920F920FB60F9211242F935B
:100780003F934F935F936F937F938F939F93AF9319
:10079000BF93EF93FF93E0910201F091030109955C
:1007A000FF91EF91BF91AF919F918F917F916F9149
:1007B0005F914F913F912F910F900FBE0F901F901F
:1007C00018951F920F920FB60F9211242F933F93FB
:1007D0004F935F936F937F938F939F93AF93BF9349
:1007E000EF93FF93E0910001F09101010995FF91D2
:1007F000EF91BF91AF919F918F917F916F915F9199
:100800004F913F912F910F900FBE0F901F90189511
:100810001F920F920FB60F9211242F933F934F9375
:100820005F936F937F938F939F93AF93BF93EF9358
:10083000FF9385E092E00E94A901FF91EF91BF91A3
:10084000AF919F918F917F916F915F914F913F9168
:100850002F910F900FBE0F901F9018951F920F921F
:100860000FB60F9211242F938F939F93EF93FF93C3
:10087000E0911502F09116028081E0911B02F09147
:100880001C0282FD1BC0908180911E028F5F8F73BE
:1008900020911F02821741F0E0911E02F0E0EB5F11
:1008A000FD4F958F80931E02FF91EF919F918F9145
:1008B0002F910F900FBE0F901F9018958081F4CF4D
:1008C0001F920F920FB60F9211242F933F934F93C5
:1008D0005F936F937F938F939F93AF93BF93EF93A8
:1008E000FF938091B900887F803609F44AC0F0F503
:1008F000883209F4A7C018F5803109F49BC0B8F418
:10090000882309F4F9C0883009F494C0FF91EF916D
:10091000BF91AF919F918F917F916F915F914F9117
:100920003F912F910F900FBE0F901F901895883117
:1009300009F488C0803251F78093CE0114C080340E
:1009400009F49DC040F48033B9F38833F9F68093FD
:10095000CE0185ECB0C0803509F485C0883509F436
:1009600096C0883499F60E943803D0CF883909F4AC
:100970008CC038F5883729F050F4883611F080376C
:1009800029F683E08093D0011092A10157C08838E6
:1009900009F47BC0803919F0803809F0B7CF809115
:1009A000A101803208F071C0E091A10181E08E0FB9
:1009B0008093A1018091BB00F0E0EF57FE4F808350
:1009C0003DC0803B39F0E0F4803A09F479C0883AC0
:1009D00009F09CCF84E08093D001109280011092A6
:1009E0007F01E091A401F091A501099580917F011B
:1009F00081110FC081E080937F0110925F0109C0D7
:100A0000803C09F4A6CF883C09F4A3CF883B09F0C9
:100A10007DCFE091800181E08E0F80938001F0E036
:100A2000E15AFE4F80818093BB00909180018091BC
:100A30007F0129C08091AB018093BB0085EC80933E
:100A4000BC0064CF9091CD018091CC01981758F5EE
:100A5000E091CD0181E08E0F8093CD01F0E0E4556F
:100A6000FE4F8081E9CFE091CD0181E08E0F809330
:100A7000CD018091BB00F0E0E455FE4F8083909162
:100A8000CD018091CC019817C8F285E8D8CFE091CC
:100A9000CD0181E08E0F8093CD018091BB00F0E00D
:100AA000E455FE4F80838091CF0181115CCF81E0BE
:100AB0008093AA0184EA8093BC001092D00126CFD3
:100AC00085EC8093BC001092D0018091A10180320E
:100AD00030F4E091A101F0E0EF57FE4F10826091F9
:100AE000A10170E0E091A201F091A30181E891E001
:100AF00009951092A1010ACF1092CE0134CFE5E002
:100B0000F2E01382128288EE93E0A0E0B0E08483EA
:100B10009583A683B78328E031E03183208325ECD9
:100B200030E03587248724EC30E03787268720ECB7
:100B300030E0318B208B21EC30E0338B228B22ECA8
:100B400030E0358B248B26EC30E0378B268B118EF2
:100B5000128E138E148EE2EAF2E0138212828483E4
:100B60009583A683B7838AE191E09183808308957A
:100B7000789484B5826084BD84B5816084BD85B578
:100B8000826085BD85B5816085BD80916E00816084
:100B900080936E001092810080918100826080932A
:100BA000810080918100816080938100809180002C
:100BB0008160809380008091B10084608093B10057
:100BC0008091B00081608093B00080917A00846051
:100BD00080937A0080917A00826080937A0080917D
:100BE0007A00816080937A0080917A008068809397
:100BF0007A001092C100E2E9F0E02491EEE7F0E023
:100C000084918823C1F090E0880F991FFC01E85976
:100C1000FF4FC591D491FC01EE58FF4FA591B491BF
:100C20009FB7F8943881822F809583238883EC9135
:100C3000E22BEC939FBF88EF90E0909301018093AB
:100C40000001809169008C7F826080936900E89A3E
:100C50001092A7011092A6011092F7011092F601CE
:100C60000E945F028FEF90E09093A5018093A40112
:100C700080E091E09093A3018093A20184E08093AF
:100C8000BA0087E293E09093A9018093A801E091D4
:100C90001502F091160282E08083E0911102F0913A
:100CA00012021082E0911302F09114028FEC808303
:100CB00010921D02E0911902F0911A0286E08083E1
:100CC000E0911702F0911802808180618083E091A9
:100CD0001702F0911802808188608083E0911702EA
:100CE000F0911802808180688083E0911702F09172
:100CF000180280818F7D808349E050E068E271E0D6
:100D000085E092E00E942B0195EEF92E25ECE22E73
:100D100000E010E0D1E032E0D32ECC24CA940E944F
:100D2000D3002B013C018AE0882E912CA12CB12C00
:100D30000E94D3006419750986099709683E7340BB
:100D400081059105A8F321E0821A9108A108B10854
:100D500088EE480E83E0581E611C711C81149104BA
:100D6000A104B10429F78091FA019091FB01892B2C
:100D700009F4AFC0D093F901D093F8011092F701B4
:100D80001092F6014BE050E062E371E082EA92E0FB
:100D90000E94C802B090F60180E28B1508F48FC063
:100DA000C091F8010E94D3002B013C018091D00139
:100DB000811160C0D092D001D093CF01C092CE01FA
:100DC0001092CD01B092CC01A6EDB1E0ECEAF1E0D9
:100DD000B8128BC01092AB018091AB01CC0FC82B25
:100DE000C093AB018091AA01813009F082C01092BA
:100DF000AA010E94D3004B015C018091AB0180935A
:100E0000BB008091D2019091D301A091D401B09107
:100E1000D501892B8A2B8B2B99F00E94D30040900F
:100E2000D2015090D3016090D4017090D50168191F
:100E300079098A099B094616570668067906D8F18A
:100E40008091BC0083FDD9CFE092BC000E94D3000A
:100E50004B015C018091D001823009F44DC080913A
:100E6000CE018F3F61F18091CE01803241F18091BE
:100E7000CE0125C08091D2019091D301A091D401DF
:100E8000B091D501892B8A2B8B2B09F48FCF0E942F
:100E9000D3002091D2013091D3014091D4015091DF
:100EA000D501641975098609970926173707480778
:100EB000590708F07BCF8091D1010E947D021092EA
:100EC000F7011092F6011092F9011092FB011092B5
:100ED000FA010115110509F422CF0E94950188231A
:100EE00009F41DCF0E9400001ACF9D9191938F5F4E
:100EF0006FCFF092BC00AACF8091D2019091D30124
:100F0000A091D401B091D501892B8A2B8B2B09F4A8
:100F1000A1CF0E94D3004090D2015090D3016090A5
:100F2000D4017090D501681979098A099B09461680
:100F300057066806790608F08DCFBDCFEE0FFF1F6C
:100F40000590F491E02D0994F894FFCF2A012A012D
:100F500000000000CB012B01580118028901670134
:100F60007B0100000000F502C80224039E02C102BA
:100F7000AE029F0241726475696E6F320D0068693E
:0A0F800046726F6D417264320D007D
:107E0000112484B714BE81FFF0D085E080938100F7
:107E100082E08093C00088E18093C10086E0809377
:107E2000C20080E18093C4008EE0C9D0259A86E02C
:107E300020E33CEF91E0309385002093840096BBD3
:107E4000B09BFECF1D9AA8958150A9F7CC24DD24C4
:107E500088248394B5E0AB2EA1E19A2EF3E0BF2EE7
:107E6000A2D0813461F49FD0082FAFD0023811F036
:107E7000013811F484E001C083E08DD089C08234E0
:107E800011F484E103C0853419F485E0A6D080C0E4
:107E9000853579F488D0E82EFF2485D0082F10E0AE
:107EA000102F00270E291F29000F111F8ED06801E7
:107EB0006FC0863521F484E090D080E0DECF843638
:107EC00009F040C070D06FD0082F6DD080E0C81688
:107ED00080E7D80618F4F601B7BEE895C0E0D1E017
:107EE00062D089930C17E1F7F0E0CF16F0E7DF06D8
:107EF00018F0F601B7BEE89568D007B600FCFDCFD4
:107F0000A601A0E0B1E02C9130E011968C91119780
:107F100090E0982F8827822B932B1296FA010C0160
:107F200087BEE89511244E5F5F4FF1E0A038BF0790
:107F300051F7F601A7BEE89507B600FCFDCF97BE46
:107F4000E89526C08437B1F42ED02DD0F82E2BD052
:107F50003CD0F601EF2C8F010F5F1F4F84911BD097
:107F6000EA94F801C1F70894C11CD11CFA94CF0C13
:107F7000D11C0EC0853739F428D08EE10CD085E9AC
:107F80000AD08FE07ACF813511F488E018D01DD067
:107F900080E101D065CF982F8091C00085FFFCCF94
:107FA0009093C60008958091C00087FFFCCF809118
:107FB000C00084FD01C0A8958091C6000895E0E648
:107FC000F0E098E1908380830895EDDF803219F02E
:107FD00088E0F5DFFFCF84E1DECF1F93182FE3DFCA
:107FE0001150E9F7F2DF1F91089580E0E8DFEE27F6
:047FF000FF270994CA
:027FFE00040479
:00000001FF
