:020000040000FA
:100000000C945D000C9485000C9485000C94850084
:100010000C9485000C9485000C9485000C9485004C
:100020000C9485000C9485000C9485000C9485003C
:100030000C9485000C9485000C9485000C9485002C
:100040000C945A020C9485000C94CA020C94A402DD
:100050000C9485000C9485000C9485000C9485000C
:100060000C9485000C94850000000008000201003B
:100070000003040700000000000000000000000072
:10008000250028002B0000000000240027002A0083
:10009000040404040404040402020202020203032E
:1000A0000303030301020408102040800102040836
:1000B0001020010204081020280411241FBECFEFD5
:1000C000D8E0DEBFCDBF22E0A6E5B1E001C01D92C1
:1000D000A430B207E1F711E0A0E0B1E0ECE0FDE010
:1000E00002C005900D92A635B107D9F710E0CDE515
:1000F000D0E004C02197FE010E948C04CC35D107CA
:10010000C9F70E94FC020C9484060C94000090E055
:10011000FC01EC55FF4F249180579F4FFC018491C7
:10012000882399F090E0880F991FFC01EA57FF4F50
:10013000A591B491FC01E458FF4F859194918FB73C
:10014000F894EC91E22BEC938FBF0895E2E7F0E096
:100150002491EEEAF0E09491EAE9F0E0E491EE23F4
:10016000C9F0222339F0233001F1A8F4213019F12C
:10017000223029F1F0E0EE0FFF1FE458FF4FA59168
:10018000B4912FB7F894EC91811126C090959E23DD
:100190009C932FBF08952730A9F02830C9F0243050
:1001A00049F7209180002F7D03C0209180002F7798
:1001B00020938000DFCF24B52F7724BDDBCF24B57B
:1001C0002F7DFBCF2091B0002F772093B000D2CFAE
:1001D0002091B0002F7DF9CF9E2BDACF3FB7F89456
:1001E00080915F0190916001A0916101B0916201E5
:1001F00026B5A89B05C02F3F19F00196A11DB11D82
:100200003FBFBA2FA92F982F8827BC01CD01620FBD
:10021000711D811D911D42E0660F771F881F991F78
:100220004A95D1F708958F929F92AF92BF92CF9245
:10023000DF92EF92FF924B015C010E94EE006B0196
:100240007C010E94EE006C197D098E099F09683EB1
:10025000734081059105A8F321E0821A9108A10855
:10026000B10888EEC80E83E0D81EE11CF11C811491
:100270009104A104B10429F7FF90EF90DF90CF9093
:10028000BF90AF909F908F900895AF92BF92CF9202
:10029000DF92EF92FF920F931F93CF93DF936C0146
:1002A0007B018B01040F151FEB015E01AE18BF0827
:1002B000C017D10759F06991D601ED91FC910190D9
:1002C000F081E02DC6010995892B79F7C501DF91F1
:1002D000CF911F910F91FF90EF90DF90CF90BF9043
:1002E000AF900895FC01538D448D252F30E0842F6D
:1002F00090E0821B930B541710F0CF96089501974E
:100300000895FC01918D828D981761F0A28DAE0F3A
:10031000BF2FB11D5D968C91928D9F5F9F73928FC1
:1003200090E008958FEF9FEF0895FC01918D828DED
:10033000981731F0828DE80FF11D858D90E00895BA
:100340008FEF9FEF0895FC01918D228D892F90E012
:10035000805C9F4F821B91098F739927089583E6D4
:1003600091E00E94A30121E0892B09F420E0822F73
:10037000089580E090E0892B29F00E94AF0181115F
:100380000C9400000895FC01A48DA80FB92FB11D95
:10039000A35ABF4F2C91848D90E001968F739927BB
:1003A000848FA689B7892C93A089B1898C91837099
:1003B00080648C93938D848D981306C00288F38992
:1003C000E02D80818F7D80830895EF92FF920F93BF
:1003D0001F93CF93DF93EC0181E0888F9B8D8C8DF1
:1003E00098131AC0E889F989808185FF15C09FB7E5
:1003F000F894EE89FF896083E889F98980818370A8
:10040000806480839FBF81E090E0DF91CF911F9156
:100410000F91FF90EF900895F62E0B8D10E00F5F77
:100420001F4F0F731127E02E8C8D8E110CC00FB64D
:1004300007FCFACFE889F989808185FFF5CFCE01E5
:100440000E94C301F1CFEB8DEC0FFD2FF11DE35A9C
:10045000FF4FF0829FB7F8940B8FEA89FB89808168
:100460008062CFCFCF93DF93EC01888D8823B9F0E2
:10047000AA89BB89E889F9898C9185FD03C08081AF
:1004800086FD0DC00FB607FCF7CF8C9185FFF2CF2C
:10049000808185FFEDCFCE010E94C301E9CFDF91BE
:1004A000CF91089542E050E068E171E083E691E089
:1004B0000C9445011F920F920FB60F9211242F93A7
:1004C0003F938F939F93AF93BF9380915B019091E4
:1004D0005C01A0915D01B0915E0130915A0123E071
:1004E000230F2D3758F50196A11DB11D20935A01F8
:1004F00080935B0190935C01A0935D01B0935E01DA
:1005000080915F0190916001A0916101B0916201C1
:100510000196A11DB11D80935F0190936001A0938E
:100520006101B0936201BF91AF919F918F913F9113
:100530002F910F900FBE0F901F90189526E8230F54
:100540000296A11DB11DD2CF1F920F920FB60F922E
:1005500011242F933F934F935F936F937F938F93C8
:100560009F93AF93BF93EF93FF9383E691E00E9435
:10057000C301FF91EF91BF91AF919F918F917F91B7
:100580006F915F914F913F912F910F900FBE0F9000
:100590001F9018951F920F920FB60F9211242F9350
:1005A0008F939F93EF93FF93E0917301F091740108
:1005B0008081E0917901F0917A0182FD1BC09081E8
:1005C00080917C018F5F8F7320917D01821741F0B4
:1005D000E0917C01F0E0ED59FE4F958F80937C0116
:1005E000FF91EF919F918F912F910F900FBE0F90E0
:1005F0001F9018958081F4CF789484B5826084BD73
:1006000084B5816084BD85B5826085BD85B5816016
:1006100085BD80916E00816080936E001092810094
:10062000809181008260809381008091810081604F
:100630008093810080918000816080938000809110
:10064000B10084608093B1008091B000816080939C
:10065000B00080917A00846080937A0080917A0063
:10066000826080937A0080917A00816080937A0022
:1006700080917A00806880937A001092C10081E0B6
:100680000E94A600CFB7F89480915601811123C033
:10069000EAE9F0E08491EEEAF0E09491E82FF0E0EE
:1006A000EE0FFF1FEA57FF4FA591B491EC91E9239C
:1006B00019F481E00E94A6008AE00E9487008CB5B0
:1006C00080618CBD8CB580648CBD8DE00E948700FC
:1006D0008BE00E948700809156018F5F80935601C6
:1006E000CFBF8CB58C7F81608CBD8DB581608DBD99
:1006F000E0917301F091740182E08083E0916F01D9
:10070000F09170011082E0917101F09172018FEC13
:10071000808310927B01E0917701F091780186E06F
:100720008083E0917501F091760180818061808302
:10073000E0917501F0917601808188608083E0917D
:100740007501F0917601808180688083E091750168
:10075000F091760180818F7D808345E150E06BE1EF
:1007600071E083E691E00E9445010E94520290E010
:10077000C92E90E0D92E62E170E090E080E00E9406
:10078000B705EC01F12CE12C009741F0188261E3F0
:1007900071E00E947D0681E1E82EF12C80E00E944C
:1007A000A60010E000E00E151F0521F1FE01E00F8C
:1007B000F11F209721F410925701E7E5F1E08081C5
:1007C0008EBD00000DB407FEFDCF8EB5209711F44D
:1007D00010925701608183E691E00E94E5010E943A
:1007E000520265E070E080E090E00E9413010F5F2C
:1007F0001F4FD9CF81E00E94A6001092590110929C
:100800005801209719F0CE010E942E0580915801C1
:1008100090915901892B51F441E150E063E471E07A
:1008200083E691E00E9445010E94520264EF71E06C
:1008300080E090E00E941301C114D10409F49BCF21
:100840000E94AF01882309F496CF0E94000093CF45
:10085000E3E6F1E01382128288EE93E0A0E0B0E0DC
:1008600084839583A683B7838AE091E09183808314
:1008700085EC90E09587848784EC90E09787868765
:1008800080EC90E0918B808B81EC90E0938B828B5D
:1008900082EC90E0958B848B86EC90E0978B868B36
:1008A000118E128E138E148E08952F923F924F92B6
:1008B0005F926F927F928F929F92AF92BF92CF92F0
:1008C000DF92EF92FF920F931F93CF93DF93CDB7F9
:1008D000DEB7CA1BDB0B0FB6F894DEBF0FBECDBF71
:1008E00009942A88398848885F846E847D848C8442
:1008F0009B84AA84B984C884DF80EE80FD800C814B
:100900001B81AA81B981CE0FD11D0FB6F894DEBF2D
:100910000FBECDBFED010895EE0FFF1F0590F491BE
:10092000E02D09940F931F93CF93DF9382309105AD
:1009300010F482E090E0E0910202F091030230E0D6
:1009400020E0B0E0A0E0309799F42115310509F4DA
:100950004AC0281B390B24303105D8F58A819B8188
:100960006115710589F1FB0193838283FE0111C03A
:10097000408151810281138148175907E0F04817DF
:10098000590799F4109761F012960C9312971396E9
:100990001C933296CF01DF91CF911F910F91089553
:1009A0000093020210930302F4CF2115310551F098
:1009B0004217530738F0A901DB019A01BD01DF019D
:1009C000F801C1CFEF01F9CF9093030280930202A7
:1009D000CDCFFE01E20FF31F819391932250310995
:1009E00039832883D7CF2091000230910102232B35
:1009F00041F42091020130910301309301022093D0
:100A0000000220910001309101012115310541F4CE
:100A10002DB73EB74091040150910501241B350BC1
:100A2000E0910002F0910102E217F307A0F42E1BFF
:100A30003F0B2817390778F0AC014E5F5F4F241742
:100A4000350748F04E0F5F1F50930102409300029C
:100A5000819391939FCFF0E0E0E09CCFCF93DF9321
:100A60000097E9F0FC01329713821282A0910202F2
:100A7000B0910302ED0130E020E01097A1F4208155
:100A80003181820F931F20910002309101022817BB
:100A9000390709F061C0F0930102E0930002DF9191
:100AA000CF910895EA01CE17DF07E8F54A815B810F
:100AB0009E0141155105B1F7E901FB83EA83499194
:100AC0005991C40FD51FEC17FD0761F48081918106
:100AD0000296840F951FE90199838883828193810F
:100AE0009B838A83F0E0E0E012968D919C911397AE
:100AF0000097B9F52D913C911197CD010296820F87
:100B0000931F20910002309101022817390739F60E
:100B1000309751F51092030210920202B093010235
:100B2000A0930002BCCFD383C28340815181840F44
:100B3000951FC817D90761F44E5F5F4F888199816F
:100B4000480F591F518340838A819B8193838283FD
:100B50002115310509F0B0CFF0930302E0930202B2
:100B60009ECFFD01DC01C0CF13821282D7CFB0E04F
:100B7000A0E0EDEBF5E00C9457048C01009751F4E4
:100B8000CB010E9492048C01C801CDB7DEB7E0E131
:100B90000C947304FC01E60FF71F9C0122503109ED
:100BA000E217F30708F49DC0D901CD91DC911197AC
:100BB000C617D70798F0C530D10530F3CE0104979A
:100BC0008617970708F3C61BD70B2297C193D193BB
:100BD0006D937C93CF010E942E05D6CF5B01AC1A9A
:100BE000BD0A4C018C0E9D1EA0910202B091030221
:100BF000512C412CF12CE12C109731F58091000201
:100C0000909101028815990509F05CC046165706B7
:100C100008F058C08091000190910101009741F4C3
:100C20008DB79EB74091040150910501841B950B2F
:100C3000E817F90708F055C0F0930102E0930002AD
:100C4000F90171836083A0CF8D919C9111971296C9
:100C50006C90129713967C901397A815B90559F5C7
:100C60006C0142E0C40ED11CCA14DB0420F1AC01BB
:100C70004A195B09DA011296159780F06282738235
:100C800051834083D9016D937C93E114F10471F099
:100C9000D7011396FC93EE93129776CF22968C0F82
:100CA0009D1FF90191838083F301EFCFF09303023D
:100CB000E093020269CF4816590608F42C017D0121
:100CC000D3019ACFCB010E9492047C01009749F096
:100CD000AE01B8010E947406C8010E942E0587016A
:100CE00053CF10E000E050CFFB01DC0102C00190C7
:100CF0000D9241505040D8F70895FB01DC0101905E
:100D00000D920020E1F70895F894FFCF000004024F
:100D1000800000000000E501450172013202A301DC
:100D2000810195010D0A0068656C6C6F2066726F19
:100D30006D20636F6E74726F6C6C65720048656CC9
:100D40006C6F5F46726F6D5F53686164790D00531D
:100D5000656E74207375636365737366756C6C7907
:020D6000000091
:107E0000112484B714BE81FFF0D085E080938100F7
:107E100082E08093C00088E18093C10086E0809377
:107E2000C20080E18093C4008EE0C9D0259A86E02C
:107E300020E33CEF91E0309385002093840096BBD3
:107E4000B09BFECF1D9AA8958150A9F7CC24DD24C4
:107E500088248394B5E0AB2EA1E19A2EF3E0BF2EE7
:107E6000A2D0813461F49FD0082FAFD0023811F036
:107E7000013811F484E001C083E08DD089C08234E0
:107E800011F484E103C0853419F485E0A6D080C0E4
:107E9000853579F488D0E82EFF2485D0082F10E0AE
:107EA000102F00270E291F29000F111F8ED06801E7
:107EB0006FC0863521F484E090D080E0DECF843638
:107EC00009F040C070D06FD0082F6DD080E0C81688
:107ED00080E7D80618F4F601B7BEE895C0E0D1E017
:107EE00062D089930C17E1F7F0E0CF16F0E7DF06D8
:107EF00018F0F601B7BEE89568D007B600FCFDCFD4
:107F0000A601A0E0B1E02C9130E011968C91119780
:107F100090E0982F8827822B932B1296FA010C0160
:107F200087BEE89511244E5F5F4FF1E0A038BF0790
:107F300051F7F601A7BEE89507B600FCFDCF97BE46
:107F4000E89526C08437B1F42ED02DD0F82E2BD052
:107F50003CD0F601EF2C8F010F5F1F4F84911BD097
:107F6000EA94F801C1F70894C11CD11CFA94CF0C13
:107F7000D11C0EC0853739F428D08EE10CD085E9AC
:107F80000AD08FE07ACF813511F488E018D01DD067
:107F900080E101D065CF982F8091C00085FFFCCF94
:107FA0009093C60008958091C00087FFFCCF809118
:107FB000C00084FD01C0A8958091C6000895E0E648
:107FC000F0E098E1908380830895EDDF803219F02E
:107FD00088E0F5DFFFCF84E1DECF1F93182FE3DFCA
:107FE0001150E9F7F2DF1F91089580E0E8DFEE27F6
:047FF000FF270994CA
:027FFE00040479
:00000001FF
