:020000040000FA
:100000000C945E000C9486000C9486000C94860080
:100010000C9486000C9486000C9486000C94860048
:100020000C9486000C9486000C9486000C94860038
:100030000C9486000C9486000C9486000C94860028
:100040000C94E4030C9486000C9454040C942E0439
:100050000C9486000C9486000C9486000C94860008
:100060000C9486000C948600000000080002010039
:100070000003040700000000000000000000000072
:10008000250028002B0000000000240027002A0083
:10009000040404040404040402020202020203032E
:1000A0000303030301020408102040800102040836
:1000B00010200102040810208604470611241FBEE8
:1000C000CFEFD8E0DEBFCDBF21E0A6E2B1E001C0B6
:1000D0001D92AE3EB207E1F711E0A0E0B1E0E8E129
:1000E000F1E102C005900D92A632B107D9F710E0F8
:1000F000CDE5D0E004C02197FE010E948706CC35F3
:10010000D107C9F70E9428050C947F080C940000C1
:1001100090E0FC01EC55FF4F249180579F4FFC016C
:100120008491882399F090E0880F991FFC01EA5789
:10013000FF4FA591B491FC01E458FF4F8591949134
:100140008FB7F894EC91E22BEC938FBF089590E079
:10015000FC01E859FF4F2491FC01EC55FF4F34910D
:10016000FC01E057FF4FE491EE23C9F0222339F060
:10017000233001F1A8F4213019F1223029F1F0E007
:10018000EE0FFF1FE458FF4FA591B4918FB7F8947D
:10019000EC91611126C030953E233C938FBF0895AA
:1001A0002730A9F02830C9F0243049F78091800029
:1001B0008F7D03C0809180008F7780938000DFCF98
:1001C00084B58F7784BDDBCF84B58F7DFBCF8091E5
:1001D000B0008F778093B000D2CF8091B0008F7D38
:1001E000F9CF3E2BDACF3FB7F89480912701909159
:1001F0002801A0912901B0912A0126B5A89B05C02C
:100200002F3F19F00196A11DB11D3FBFBA2FA92F95
:10021000982F8827BC01CD01620F711D811D911D92
:1002200042E0660F771F881F991F4A95D1F70895FE
:10023000AF92BF92CF92DF92EF92FF920F931F93F4
:10024000CF93DF936C017B018B01040F151FEB0132
:100250005E01AE18BF08C017D10759F06991D601E9
:10026000ED91FC910190F081E02DC6010995892B5B
:1002700079F7C501DF91CF911F910F91FF90EF901A
:10028000DF90CF90BF90AF900895FC01538D448DC7
:10029000252F30E0842F90E0821B930B541710F031
:1002A000CF96089501970895FC01918D828D98173E
:1002B00061F0A28DAE0FBF2FB11D5D968C91928D16
:1002C0009F5F9F73928F90E008958FEF9FEF089547
:1002D0002FB7F89480912B0190912C01A0912D01C2
:1002E000B0912E012FBF8093370190933801A093D6
:1002F0003901B0933A018FE291E00E94540197FFD7
:1003000026C02FB7F89480912B0190912C01A091D9
:100310002D01B0912E012FBF40913701509138012E
:100320006091390170913A01841B950BA60BB70BB4
:100330004091330150913401609135017091360143
:1003400084179507A607B707B0F28FEF9FEF0895C0
:10035000FC01918D828D981731F0828DE80FF11D8F
:10036000858D90E008958FEF9FEF0895FC01918DAA
:10037000228D892F90E0805C9F4F821B91098F73A3
:10038000992708958FE291E00E94B60121E0892B20
:1003900009F420E0822F089580E090E0892B29F075
:1003A0000E94C20181110C9400000895FC01A48DEB
:1003B000A80FB92FB11DA35ABF4F2C91848D90E087
:1003C00001968F739927848FA689B7892C93A0896A
:1003D000B1898C91837080648C93938D848D9813F4
:1003E00006C00288F389E02D80818F7D8083089587
:1003F000EF92FF920F931F93CF93DF93EC0181E075
:10040000888F9B8D8C8D98131AC0E889F98980811B
:1004100085FF15C09FB7F894EE89FF896083E8894E
:10042000F98980818370806480839FBF81E090E040
:10043000DF91CF911F910F91FF90EF900895F62ECD
:100440000B8D10E00F5F1F4F0F731127E02E8C8D67
:100450008E110CC00FB607FCFACFE889F9898081AC
:1004600085FFF5CFCE010E94D601F1CFEB8DEC0FC9
:10047000FD2FF11DE35AFF4FF0829FB7F8940B8FC9
:10048000EA89FB8980818062CFCFCF93DF93EC0133
:10049000888D8823B9F0AA89BB89E889F9898C916C
:1004A00085FD03C0808186FD0DC00FB607FCF7CF28
:1004B0008C9185FFF2CF808185FFEDCFCE010E9428
:1004C000D601E9CFDF91CF910895089590E080E0C3
:1004D0000895CF93DF93EC0160E08E810E94A70026
:1004E00061E08E810E94A70060E08E810E94A700DB
:1004F0008BE891E00197F1F7DF91CF910895CF92CA
:10050000DF92EF92FF920F931F93CF93DF936C01D3
:100510007C0187E0E80EF11CD0E0C0E0062F10E07F
:10052000B8010C2E02C0759567950A94E2F76170C8
:10053000F70181917F010E94A7002196C430D10567
:1005400079F7C601DF91CF911F910F91FF90EF9046
:10055000DF90CF900C946902CF92DF92EF92FF92DE
:100560000F931F93CF93DF93EC01F62E642F8C81B2
:100570000E94A7008D818F3F19F060E00E94A700C4
:100580000F2D10E08F8584FF25C06E0187E0C80E17
:10059000D11CF12CE12CB8010E2C02C07595679589
:1005A0000A94E2F76170F60181916F010E94A70041
:1005B000FFEFEF1AFF0A88E0E816F10461F7CE01B9
:1005C000DF91CF911F910F91FF90EF90DF90CF902F
:1005D0000C946902B80184E0759567958A95E1F7F6
:1005E000CE010E947F026F2DCE01DF91CF911F912E
:1005F0000F91FF90EF90DF90CF900C947F02CF93FC
:10060000DF93823029F49091E10198609093E101A9
:100610008093E5011092E60180E48093E70180E198
:100620008093E80180E58093E9018091D6010E94E2
:1006300088008091D7018F3F11F00E94880080913F
:10064000D8010E948800C2EDD1E09E01225D3140B8
:100650008091E10184FD0AC084E090E02196281792
:1006600039073CF48E810E948800EFCF88E090E04B
:10067000F5CF8BE39DE00197F1F760E08091D60123
:100680000E94A70060E08091D8010E94A70080919D
:10069000D7018F3F19F060E00E94A7006091E1014F
:1006A00064FD45C063E082ED91E00E947F02CBE4EF
:1006B000D6E4CE010197F1F763E082ED91E00E946C
:1006C0007F022197F1F763E082ED91E00E947F02C3
:1006D00083E592E00197F1F762E082ED91E00E94FC
:1006E0007F026091E101606240E082ED91E00E9452
:1006F000AC0284E08093E20140E06CE082ED91E0A6
:100700000E94AC0240E061E082ED91E00E94AC0208
:100710008BE39FE10197F1F782E08093E30140E0F2
:1007200066E082ED91E0DF91CF910C94AC026062C3
:1007300040E082ED91E00E94AC028BE496E40197E8
:10074000F1F76091E101606240E082ED91E00E948A
:10075000AC0283E592E00197F1F76091E1016062FC
:1007600040E082ED91E00E94AC02BBCF41E00E94EC
:10077000AC0281E090E008950F931F93CF93DF9335
:10078000EC0188819981009759F02A813B812617D5
:10079000370730F081E0DF91CF911F910F910895DD
:1007A0008B016F5F7F4F0E94B207009759F09983CA
:1007B00088831B830A832C813D81232B59F7FC01FD
:1007C0001082E8CF80E0E7CF1F920F920FB60F9212
:1007D00011242F933F938F939F93AF93BF93809157
:1007E0002B0190912C01A0912D01B0912E013091FF
:1007F000260123E0230F2D3758F50196A11DB11DC9
:100800002093260180932B0190932C01A0932D011E
:10081000B0932E018091270190912801A091290188
:10082000B0912A010196A11DB11D809327019093DB
:100830002801A0932901B0932A01BF91AF919F9104
:100840008F913F912F910F900FBE0F901F90189591
:1008500026E8230F0296A11DB11DD2CF1F920F9241
:100860000FB60F9211242F933F934F935F936F9383
:100870007F938F939F93AF93BF93EF93FF938FE2F9
:1008800091E00E94D601FF91EF91BF91AF919F91AE
:100890008F917F916F915F914F913F912F910F9029
:1008A0000FBE0F901F9018951F920F920FB60F92C8
:1008B00011242F938F939F93EF93FF93E0913F0128
:1008C000F09140018081E0914501F091460182FD67
:1008D0001BC09081809148018F5F8F7320914901E7
:1008E000821741F0E0914801F0E0E15DFE4F958F05
:1008F00080934801FF91EF919F918F912F910F90DD
:100900000FBE0F901F9018958081F4CF1092320186
:100910001092310188EE93E0A0E0B0E080933301C3
:1009200090933401A0933501B09336018AE091E0B1
:100930009093300180932F0185EC90E090933C01DF
:1009400080933B0184EC90E090933E0180933D01C5
:1009500080EC90E09093400180933F0181EC90E027
:10096000909342018093410182EC90E09093440186
:100970008093430186EC90E090934601809345017B
:10098000109248011092490110924A0110924B01B5
:100990001092D5011092D4018CE191E09093D30193
:1009A0008093D2018CE08093D6018FEF8093D701A2
:1009B0008BE08093D80185E08093D90184E0809317
:1009C000DA0183E08093DB0182E08093DC01109206
:1009D000DD011092DE011092DF011092E001109211
:1009E000E10181E00E94FF021092CD011092CC0142
:1009F0001092CF011092CE011092D1011092D0012D
:100A000070E060E08CEC91E00E94BC032091CC018E
:100A10003091CD01811113C02115310519F0C901A3
:100A20000E9429071092CD011092CC011092D101A1
:100A30001092D0011092CF011092CE010895109221
:100A4000D1011092D00164E271E0C9010C947808E0
:100A5000CF93DF93CDB7DEB728970FB6F894DEBFFC
:100A60000FBECDBF789484B5826084BD84B58160AB
:100A700084BD85B5826085BD85B5816085BD809169
:100A80006E00816080936E001092810080918100E1
:100A900082608093810080918100816080938100D9
:100AA000809180008160809380008091B10084609B
:100AB0008093B1008091B00081608093B0008091FC
:100AC0007A00846080937A0080917A0082608093BB
:100AD0007A0080917A00816080937A0080917A0018
:100AE000806880937A001092C100E0913F01F091FC
:100AF000400182E08083E0913B01F0913C01108253
:100B0000E0913D01F0913E018FEC8083109247010E
:100B1000E0914301F091440186E08083E09141013E
:100B2000F0914201808180618083E0914101F091E8
:100B30004201808188608083E0914101F09142010F
:100B4000808180688083E0914101F0914201808141
:100B50008F7D808382E00E94FF0240E061E082EDB1
:100B600091E00E94AC028BE39FE10197F1F790E0E6
:100B7000E92E90E0F92E62E78FE291E00E94F80101
:100B80008FE291E00E94B60118161906CCF71A827E
:100B900019821C821B821E821D8270E060E0CE01E1
:100BA00001960E94BC0329813A8181112CC0211534
:100BB000310519F0C9010E9429071A8219821E8283
:100BC0001D821C821B820E9468014D815E8197FDFF
:100BD00022C08F8318868A010F5F1F4FB801CE0194
:100BE00001960E94BC03882371F329813A818D818B
:100BF0009E81BE01695F7F4F820F931F0E9478081C
:100C00001E830D83E0CF1E821D8264E271E0C90164
:100C10000E947808D8CF69817A8182ED91E00E94A4
:100C2000180189819A81009711F00E9429070E947A
:100C3000F3002B013C0184E6882E912CA12CB12CD1
:100C40000E94F3006419750986099709683E73408C
:100C500081059105A8F321E0821A9108A108B10845
:100C600088EE480E83E0581E611C711C81149104AB
:100C7000A104B10429F7E114F10409F47CCF0E9426
:100C8000C201882309F477CF0E94000074CF8091BD
:100C9000CC019091CD01009711F00C942907089593
:100CA0002F923F924F925F926F927F928F929F927C
:100CB000AF92BF92CF92DF92EF92FF920F931F936A
:100CC000CF93DF93CDB7DEB7CA1BDB0B0FB6F8941B
:100CD000DEBF0FBECDBF09942A88398848885F845B
:100CE0006E847D848C849B84AA84B984C884DF80CC
:100CF000EE80FD800C811B81AA81B981CE0FD11DB0
:100D00000FB6F894DEBF0FBECDBFED010895EE0F14
:100D1000FF1F0590F491E02D09940F931F93CF933B
:100D2000DF938230910510F482E090E0E091EC01D5
:100D3000F091ED0130E020E0B0E0A0E0309799F4D0
:100D40002115310509F44AC0281B390B243031051F
:100D5000D8F58A819B816115710589F1FB01938327
:100D60008283FE0111C040815181028113814817A5
:100D70005907E0F04817590799F4109761F0129657
:100D80000C93129713961C933296CF01DF91CF915B
:100D90001F910F9108950093EC011093ED01F4CF92
:100DA0002115310551F04217530738F0A901DB0135
:100DB0009A01BD01DF01F801C1CFEF01F9CF909396
:100DC000ED018093EC01CDCFFE01E20FF31F819383
:100DD00091932250310939832883D7CF2091EA019A
:100DE0003091EB01232B41F420910201309103015A
:100DF0003093EB012093EA01209100013091010131
:100E00002115310541F42DB73EB7409104015091B1
:100E10000501241B350BE091EA01F091EB01E2178B
:100E2000F307A0F42E1B3F0B2817390778F0AC010D
:100E30004E5F5F4F2417350748F04E0F5F1F5093EA
:100E4000EB014093EA01819391939FCFF0E0E0E0C2
:100E50009CCFCF93DF930097E9F0FC013297138288
:100E60001282A091EC01B091ED01ED0130E020E0A3
:100E70001097A1F420813181820F931F2091EA0104
:100E80003091EB012817390709F061C0F093EB01AD
:100E9000E093EA01DF91CF910895EA01CE17DF07D1
:100EA000E8F54A815B819E0141155105B1F7E901E1
:100EB000FB83EA8349915991C40FD51FEC17FD07B5
:100EC00061F4808191810296840F951FE9019983D5
:100ED0008883828193819B838A83F0E0E0E012968D
:100EE0008D919C9113970097B9F52D913C91119795
:100EF000CD010296820F931F2091EA013091EB0100
:100F00002817390739F6309751F51092ED011092F4
:100F1000EC01B093EB01A093EA01BCCFD383C28371
:100F200040815181840F951FC817D90761F44E5F26
:100F30005F4F88819981480F591F518340838A816F
:100F40009B81938382832115310509F0B0CFF09303
:100F5000ED01E093EC019ECFFD01DC01C0CF1382D7
:100F60001282D7CFB0E0A0E0E8EBF7E00C94520695
:100F70008C01009751F4CB010E948D068C01C801B1
:100F8000CDB7DEB7E0E10C946E06FC01E60FF71F6B
:100F90009C0122503109E217F30708F49DC0D901E2
:100FA000CD91DC911197C617D70798F0C530D105C0
:100FB00030F3CE0104978617970708F3C61BD70BAB
:100FC0002297C193D1936D937C93CF010E942907FF
:100FD000D6CF5B01AC1ABD0A4C018C0E9D1EA091B0
:100FE000EC01B091ED01512C412CF12CE12C10972A
:100FF00031F58091EA019091EB018815990509F08E
:101000005CC04616570608F058C0809100019091C8
:101010000101009741F48DB79EB7409104015091B2
:101020000501841B950BE817F90708F055C0F093EC
:10103000EB01E093EA01F90171836083A0CF8D9108
:101040009C91119712966C90129713967C9013971F
:10105000A815B90559F56C0142E0C40ED11CCA149B
:10106000DB0420F1AC014A195B09DA0112961597ED
:1010700080F06282738251834083D9016D937C93A7
:10108000E114F10471F0D7011396FC93EE931297DB
:1010900076CF22968C0F9D1FF90191838083F301F7
:1010A000EFCFF093ED01E093EC0169CF48165906BC
:1010B00008F42C017D01D3019ACFCB010E948D064B
:1010C0007C01009749F0AE01B8010E946F08C80189
:1010D0000E942907870153CF10E000E050CFFB01A9
:1010E000DC0102C001900D9241505040D8F70895A4
:1010F000FB01DC0101900D920020E1F7089510E062
:10110000CDE5D0E004C0FE010E9487062196CE35D1
:10111000D107C9F7F894FFCF0000EE01800000006E
:101120000000F801180145014502B6015401A8016B
:0E11300000000000B603180166026502000010
:107E0000112484B714BE81FFF0D085E080938100F7
:107E100082E08093C00088E18093C10086E0809377
:107E2000C20080E18093C4008EE0C9D0259A86E02C
:107E300020E33CEF91E0309385002093840096BBD3
:107E4000B09BFECF1D9AA8958150A9F7CC24DD24C4
:107E500088248394B5E0AB2EA1E19A2EF3E0BF2EE7
:107E6000A2D0813461F49FD0082FAFD0023811F036
:107E7000013811F484E001C083E08DD089C08234E0
:107E800011F484E103C0853419F485E0A6D080C0E4
:107E9000853579F488D0E82EFF2485D0082F10E0AE
:107EA000102F00270E291F29000F111F8ED06801E7
:107EB0006FC0863521F484E090D080E0DECF843638
:107EC00009F040C070D06FD0082F6DD080E0C81688
:107ED00080E7D80618F4F601B7BEE895C0E0D1E017
:107EE00062D089930C17E1F7F0E0CF16F0E7DF06D8
:107EF00018F0F601B7BEE89568D007B600FCFDCFD4
:107F0000A601A0E0B1E02C9130E011968C91119780
:107F100090E0982F8827822B932B1296FA010C0160
:107F200087BEE89511244E5F5F4FF1E0A038BF0790
:107F300051F7F601A7BEE89507B600FCFDCF97BE46
:107F4000E89526C08437B1F42ED02DD0F82E2BD052
:107F50003CD0F601EF2C8F010F5F1F4F84911BD097
:107F6000EA94F801C1F70894C11CD11CFA94CF0C13
:107F7000D11C0EC0853739F428D08EE10CD085E9AC
:107F80000AD08FE07ACF813511F488E018D01DD067
:107F900080E101D065CF982F8091C00085FFFCCF94
:107FA0009093C60008958091C00087FFFCCF809118
:107FB000C00084FD01C0A8958091C6000895E0E648
:107FC000F0E098E1908380830895EDDF803219F02E
:107FD00088E0F5DFFFCF84E1DECF1F93182FE3DFCA
:107FE0001150E9F7F2DF1F91089580E0E8DFEE27F6
:047FF000FF270994CA
:027FFE00040479
:00000001FF
