:100000000C9453000C947B000C947B000C947B00AC
:100010000C947B000C947B000C947B000C947B0074
:100020000C947B000C947B000C947B000C947B0064
:100030000C947B000C947B000C947B000C947B0054
:100040000C9497010C9439020C9407020C94E10172
:100050000C947B000C947B000C947B000C947B0034
:100060000C947B000C947B0000000000250028000D
:100070002B0000000000240027002A0004040404D0
:100080000404040402020202020203030303030342
:10009000010204081020408001020408102001021F
:1000A00004081020310311241FBECFEFD8E0DEBFBB
:1000B000CDBF11E0A0E0B1E0ECECF6E002C00590AD
:1000C0000D92AE32B107D9F721E0AEE2B1E001C046
:1000D0001D92AE3EB207E1F710E0C3E5D0E004C0E8
:1000E0002197FE010E945E03C235D107C9F70E9425
:1000F0004D020C9464030C940000AF92BF92CF9217
:10010000DF92EF92FF920F931F93CF93DF936C01D7
:100110007B018B01040F151FEB015E01AE18BF08B8
:10012000C017D10759F06991D601ED91FC9101906A
:10013000F081E02DC6010995892B79F7C501DF9182
:10014000CF911F910F91FF90EF90DF90CF90BF90D4
:10015000AF900895FC01538D448D252F30E0842FFE
:1001600090E0821B930B541710F0CF9608950197DF
:100170000895FC01918D828D981761F0A28DAE0FCC
:10018000BF2FB11D5D968C91928D9F5F9F73928F53
:1001900090E008958FEF9FEF0895FC01918D828D7F
:1001A000981731F0828DE80FF11D858D90E008954C
:1001B0008FEF9FEF0895FC01918D228D892F90E0A4
:1001C000805C9F4F821B91098F739927089581E569
:1001D00091E00E94DB0021E0892B09F420E0822FCE
:1001E000089580E090E0892B29F00E94E7008111BA
:1001F0000C9400000895FC01A48DA80FB92FB11D27
:10020000A35ABF4F2C91848D90E001968F7399274C
:10021000848FA689B7892C93A089B1898C9183702A
:1002200080648C93938D848D981306C00288F38923
:10023000E02D80818F7D80830895EF92FF920F9350
:100240001F93CF93DF93EC0181E0888F9B8D8C8D82
:1002500098131AC0E889F989808185FF15C09FB776
:10026000F894EE89FF896083E889F9898081837039
:10027000806480839FBF81E090E0DF91CF911F91E8
:100280000F91FF90EF900895F62E0B8D10E00F5F09
:100290001F4F0F731127E02E8C8D8E110CC00FB6DF
:1002A00007FCFACFE889F989808185FFF5CFCE0177
:1002B0000E94FB00F1CFEB8DEC0FFD2FF11DE35AF7
:1002C000FF4FF0829FB7F8940B8FEA89FB898081FA
:1002D0008062CFCFCF93DF93EC01888D8823B9F074
:1002E000AA89BB89E889F9898C9185FD03C0808141
:1002F00086FD0DC00FB607FCF7CF8C9185FFF2CFBE
:10030000808185FFEDCFCE010E94FB00E9CFDF9118
:10031000CF910895FC0101900020E9F73197AF01DA
:10032000481B590BBC0181E591E00C947D001F92A4
:100330000F920FB60F9211242F933F938F939F9399
:10034000AF93BF9380914D0190914E01A0914F01C9
:10035000B091500130914C0123E0230F2D3758F517
:100360000196A11DB11D20934C0180934D019093E6
:100370004E01A0934F01B09350018091480190919C
:100380004901A0914A01B0914B010196A11DB11DF7
:100390008093480190934901A0934A01B0934B0187
:1003A000BF91AF919F918F913F912F910F900FBE71
:1003B0000F901F90189526E8230F0296A11DB11DDE
:1003C000D2CF1F920F920FB60F9211242F933F930B
:1003D0004F935F936F937F938F939F93AF93BF934D
:1003E000EF93FF9381E591E00E94FB00FF91EF9175
:1003F000BF91AF919F918F917F916F915F914F913D
:100400003F912F910F900FBE0F901F9018951F9244
:100410000F920FB60F9211242F938F939F93EF9308
:10042000FF93E0916101F09162018081E0916701A9
:10043000F091680182FD1BC0908180916A018F5FFD
:100440008F7320916B01821741F0E0916A01F0E017
:10045000EF5AFE4F958F80936A01FF91EF919F9124
:100460008F912F910F900FBE0F901F901895808144
:10047000F4CF1F920F920FB60F9211248F939F9378
:1004800081E090E090934701809346019F918F9186
:100490000F900FBE0F901F901895789484B58260CE
:1004A00084BD84B5816084BD85B5826085BD85B518
:1004B000816085BD80916E00816080936E00109296
:1004C0008100809181008260809381008091810011
:1004D00081608093810080918000816080938000A2
:1004E0008091B10084608093B1008091B000816000
:1004F0008093B00080917A00846080937A0080912C
:100500007A00826080937A0080917A008160809383
:100510007A0080917A00806880937A001092C100FE
:10052000ECE9F0E02491E8E8F0E08491882399F088
:1005300090E0880F991FFC01EE58FF4FA591B491F0
:10054000FC01E859FF4F859194918FB7F894EC9195
:10055000E22BEC938FBF8CB580648CBD8CB580682A
:100560008CBDE0916101F091620182E08083E091B5
:100570005D01F0915E011082E0915F01F0916001F8
:100580008FEC808310926901E0916501F091660122
:1005900086E08083E0916301F09164018081806155
:1005A0008083E0916301F0916401808188608083A1
:1005B000E0916301F0916401808180688083E09123
:1005C0006301F091640180818F7D808382E191E0FD
:1005D0000E948A018BE291E00E948A01C0E0D0E093
:1005E0008091460190914701892B91F180914401BE
:1005F00090914501449764F58EB5E0914401F091E6
:100600004501E05DFE4F808380914401909145015A
:1006100001969093450180934401E0914401F0914B
:100620004501E05DFE4F8081882331F080914401D7
:1006300090914501449744F0109245011092440175
:1006400080E391E00E948A011092470110924601D6
:10065000209731F20E94E700882311F20E940000E7
:10066000BFCFE1E5F1E01382128288EE93E0A0E0D3
:10067000B0E084839583A683B78384E091E091837F
:10068000808385EC90E09587848784EC90E0978761
:10069000868780EC90E0918B808B81EC90E0938B4F
:1006A000828B82EC90E0958B848B86EC90E0978B2C
:1006B000868B118E128E138E148E0895EE0FFF1FEF
:0C06C0000590F491E02D0994F894FFCF10
:1006CC00000000001D017D00AA006A01DB00B900DA
:1006DC00CD0041726475696E6F20323A207468697E
:0E06EC007320697320736C617665000D0A003F
:00000001FF
